:020000040800F2
:10000000A807002089010008910100089301000859
:100010009501000897010008990100080000000000
:100020000000000000000000000000009B0100082C
:100030009D010008000000009F010008A1010008C8
:10004000A3010008A3010008A3010008A301000800
:10005000A3010008A3010008A3010008A3010008F0
:10006000A3010008A3010008A3010008A3010008E0
:10007000A3010008A3010008A3010008A3010008D0
:10008000A3010008A3010008A3010008A3010008C0
:10009000A3010008A3010008A301000889020008C9
:1000A000A3010008A3010008A3010008A3010008A0
:1000B000A9090008A3010008790A0008A3010008A3
:1000C000A3010008A3010008A3010008A301000880
:1000D000A3010008590D0008990D0008A3010008AC
:1000E0005D020008A3010008A301000800F002F867
:1000F00000F03AF80AA090E8000C82448344AAF188
:100100000107DA4501D100F02FF8AFF2090EBAE885
:100110000F0013F0010F18BFFB1A43F0010318473B
:1001200098110000B8110000103A24BF78C878C1B7
:10013000FAD8520724BF30C830C144BF04680C60ED
:10014000704700000023002400250026103A28BF35
:1001500078C1FBD8520728BF30C148BF0B60704739
:100160001FB51FBD10B510BD00F033F81146FFF7E5
:10017000F7FF00F06DFF00F051F803B4FFF7F2FF56
:1001800003BC00F01AFF00000948804709480047F7
:10019000FEE7FEE7FEE7FEE7FEE7FEE7FEE7FEE737
:1001A000FEE7FEE704480549054A064B7047000094
:1001B00049090008ED000008A8010020A807002058
:1001C000A8030020A80300207047704770477047BD
:1001D0007047754600F028F8AE460500694653465C
:1001E00020F00700854618B020B5FFF7DBFFBDE81B
:1001F00020404FF000064FF000074FF000084FF08E
:10020000000B21F00701AC46ACE8C009ACE8C0091E
:10021000ACE8C009ACE8C0098D4670470446AFF3AE
:1002200000802046FFF7A9FF0048704748010020E2
:1002300008B50121042000F043FA10208DF80300D6
:100240004020ADF8000003208DF802006946024806
:1002500000F0F8F808BD00000008014010B54FF4A8
:10026000406000F071F860B14FF4406000F066F853
:100270000021044800F063FC00214FF0804000F0B2
:100280005EFC10BD0004004010B54FF4807000F01B
:100290005BF880B10021084800F051FC4FF48070F9
:1002A00000F04CF80548006820F4807003490860AD
:1002B00001200349086010BD000400400004014013
:1002C0003C0000200EB500F04DF90121084600F079
:1002D000F7F90A21012000F095F84FF480600190B1
:1002E00000208DF8080008208DF8090001208DF805
:1002F0000A0001A800F03CF80B21012000F082F870
:100300004FF40060019000208DF8080008208DF85F
:10031000090001208DF80A0001A800F029F8282022
:100320008DF8000000208DF801008DF802000120FA
:100330008DF80300684600F071F90EBD01490860B0
:100340007047000014040140014600200022074BC2
:100350001B6803EA0102054B14331B680B4013B101
:100360000AB1012000E000207047000000040140B5
:10037000002123498279002A3AD00A46126803688C
:100380009A430B461A600A1D126803689A430B1DB4
:100390001A60027911440A6803681A430A60184A0D
:1003A0000832126803689A43154B08331A601A1D05
:1003B000126803689A43124B0C331A604279102A70
:1003C0000ED11A1F126803681A430D4B08331A60C6
:1003D0001A1D126803681A43094B0C331A600DE0AA
:1003E0000749427911440A6803681A430A6005E024
:1003F000027911440A6803689A430A607047000052
:100400000004014030B500228B071C0F0F2303FAB4
:1004100004F20B4B8C1053F824309343084C8D108E
:1004200044F8253023468C1053F824308C07240FD1
:1004300000FA04F42343024C8D1044F8253030BDFB
:10044000080001402DE9F041024600250026002069
:1004500000230024002791F803C00CF00F0591F849
:1004600003C00CF0100CBCF1000F03D091F802C0D7
:100470004CEA050591F800C0BCF1000F31D01468BA
:1004800000202BE04FF0010C0CFA00F3B1F800C093
:100490000CEA03069E4220D183004FF00F0C0CFAA9
:1004A00003F7BC4305FA03FC4CEA040491F803C0CB
:1004B000BCF1280F06D14FF0010C0CFA00FCC2F879
:1004C00014C00AE091F803C0BCF1480F05D14FF009
:1004D000010C0CFA00FCC2F810C0401C0828D1D353
:1004E0001460B1F800C0BCF1FF0F34DD5468002087
:1004F0002EE000F1080C4FF0010808FA0CF3B1F8F7
:1005000000C00CEA03069E4221D183004FF00F0C7D
:100510000CFA03F7BC4305FA03FC4CEA040491F817
:1005200003C0BCF1280F05D100F1080C08FA0CF843
:10053000C2F8148091F803C0BCF1480F07D100F154
:10054000080C4FF0010808FA0CF8C2F81080401CA3
:100550000828CED35460BDE8F08141617047016145
:100560007047000008B50121082000F0A9F84FF4F9
:100570004060ADF8000028208DF80300694602486D
:10058000FFF760FF08BD0000000C01401FB54FF4ED
:100590008070ADF8000004208DF8030069461C4807
:1005A000FFF750FF0121082000F08AF801210846DA
:1005B00000F086F808210120FFF724FF4FF4807037
:1005C000029000208DF80C0008208DF80D0002A884
:1005D000FFF7CEFE17208DF8040001208DF80500EE
:1005E0008DF806008DF8070001A800F017F84021EB
:1005F0000848FFF7B4FF40F60F62002141F61F40A4
:1006000000F0EEF90121044800F099FA1FBD000046
:10061000000C0140000801400004004070B50021BA
:1006200000230F22C47804B3154C246804F4E0645A
:10063000C4F5E064210AC1F10403CA40447804FA15
:1006400003F184781440214309010E4C0678A1552A
:10065000047804F01F050124AC4005786D11AD004D
:1006600005F1E025C5F8004109E0047804F01F0514
:100670000124AC40044D0678761145F8264070BD43
:100680000CED00E000E400E080E100E002490143FD
:10069000024A1160704700000000FA050CED00E00E
:1006A00029B1064AD2690243044BDA6104E0034AE5
:1006B000D2698243014BDA617047000000100240AA
:1006C00029B1064A92690243044B9A6104E0034A45
:1006D00092698243014B9A6170470000001002400A
:1006E00030B500210022002400232D4D6D6805F057
:1006F0000C0121B1042905D0082923D105E0294D99
:10070000056022E0274D05601FE0254D6D6805F46A
:100710007012234D6D6805F48034022505EB92427A
:100720001CB9214D554305600BE01D4D6D6805F466
:1007300000351DB11C4D5543056002E0194D554370
:10074000056002E0174D056000BF00BF144D6D68E5
:1007500005F0F0010909154D6B5C0568DD40456049
:100760000F4D6D6805F4E061090A104D6B5C45683A
:10077000DD4085600A4D6D6805F46051C90A0B4D76
:100780006B5C4568DD40C560054D6D6805F4404112
:10079000890B074D6B5CC568B5FBF3F5056130BD92
:1007A0000010024000127A0000093D000000002005
:1007B0001000002010B500F001F810BD0CB50020AD
:1007C000019000903348006840F48030314908605F
:1007D00000BF3048006800F4003000900198401CD1
:1007E0000190009818B90198B0F5A06FF1D129488F
:1007F000006800F4003010B10120009001E00020FA
:1008000000900098012843D12348006840F0100070
:10081000214908600846006820F003000860084687
:10082000006840F0020008601A48406819494860B2
:100830000846406848600846406840F48060486068
:100840000846406820F47C1048600846406840F440
:10085000E81048600846006840F08070086000BFFB
:100860000C48006800F000700028F9D00948406882
:1008700020F00300074948600846406840F0020045
:10088000486000BF0348406800F00C000828F9D118
:100890000CBD000000100240002002401FB50446BD
:1008A00001210846FFF7FCFEADF808404FF08040FC
:1008B000008840F004004FF0804108800020ADF82F
:1008C00004008DF80C00ADF80A00ADF8060001A98F
:1008D0004FF0804000F0EEF907214FF0804000F02B
:1008E000DEF92021480600F0BFF9012211469007E9
:1008F00000F045F91C208DF8000002208DF8010061
:1009000003208DF8020001208DF803006846FFF7F0
:1009100085FE00214FF0804000F011F91FBD042832
:1009200008D14FF0E021096941F004014FF0E022C5
:10093000116107E04FF0E021096921F004014FF057
:10094000E02211617047000010B51348006840F0C4
:1009500001001149086008464068104908400E49E6
:100960004860084600680E4908400B490860084680
:10097000006820F4802008600846406820F4FE00EB
:1009800048604FF41F008860FFF714FF4FF00060CD
:100990000449086010BD0000001002400000FFF88C
:1009A000FFFFF6FE08ED00E010B50121880700F01A
:1009B000D5F878B10121880700F0BEF8002106487B
:1009C00000F0BDF800214FF0804000F0B8F80120A1
:1009D0000249086010BD00000004004038000020FB
:1009E00070B588B006460C46154601210220FFF777
:1009F00057FE01210420FFF763FE8020ADF81C00A4
:100A000018208DF81F0003208DF81E0007A9184834
:100A1000FFF718FDADF81460ADF810400020ADF8F8
:100A20001600ADF8120004A9124800F043F9602046
:100A3000ADF800000120ADF802000020ADF808007C
:100A4000ADF8065069460B4800F0A2F808210948A5
:100A500000F0F0F80021074800F071F88021054807
:100A600000F00BF92021034800F010F908B070BD28
:100A7000000801400004004010B52C48007800F048
:100A8000800000284CD10121294800F067F8D0B13E
:100A90002648007800F04000A8B12448007800F013
:100AA0003F003F280AD12148007840F080001F49CC
:100AB00008704FF6FF701F49088004E01B4800785B
:100AC000401C1A4908700821194800F047F838B34B
:100AD0001648007800F0400078B11448007840F0E3
:100AE000800012490870124800F035F8114908805A
:100AF00000210F4800F0ABF812E000200B4908700D
:100B00000C49088000210A4800F0D2F80748007814
:100B100040F04000054908700221054800F097F8B0
:100B20000921034800F008F810BD00003200002041
:100B30000008004034000020CA430282704721B1FF
:100B4000028842F00102028004E002884FF6FE7340
:100B50001A40028070470146888E704730B50246C1
:100B6000002000230024158A05EA0103958905EA7F
:100B7000010413B10CB1012000E0002030BD1AB116
:100B800083890B43838102E083898B438381704790
:100B900070B5002400220023058C4FF6EF76354017
:100BA0000584028C8388048B48F6FF752C404FF631
:100BB000FF452C400D884FF6FF7606EA05252C43AD
:100BC0004FF6DF752A400D8906EA05152A434D8840
:100BD00006EA05152A43154DA84202D0144DA84235
:100BE0001DD14FF67F752A404D894FF6FF7606EAF4
:100BF00005152A434FF6BF752A408D8806EA05156C
:100C00002A434FF6FF352B404FF2FF752B408D895D
:100C100006EA85052B43CD8906EA85052B438380AB
:100C20000483CD880587028470BD0000002C01403C
:100C3000003401400A460021018B4FF2FF73194036
:100C40004FF6FF7303EA02231943018370470A46F4
:100C50000021018C4FF6FF5319404FF6FF7303EA52
:100C600002231943018470470A46002101894FF687
:100C70008F73194011430181704702894FF67F73CA
:100C80001A40028102890A430281704782884FF626
:100C90008F731A40828082880A438280704702895B
:100CA0004FF6F8731A40028102890A4302817047A5
:100CB00081847047002202881D4B98420ED01D4B44
:100CC00098420BD0B0F1804F08D01B4B984205D012
:100CD0001A4B984202D01A4B984204D14FF68F73A8
:100CE0001A404B881A43174B984207D0164B98422C
:100CF00004D04FF6FF431A40CB881A4302808B88FA
:100D000083850B8803850A4B98420BD0094B984288
:100D100008D00E4B984205D00D4B984202D00D4B97
:100D2000984201D10B7A0386012383827047000029
:100D3000002C014000340140000400400008004045
:100D4000000C004000100040001400400040014032
:100D5000004401400048014010B540F225510B48C5
:100D600000F06AF880B1094800F022F9C4B20848DE
:100D70000078402808DA07480549097844540448AF
:100D80000078401C0249087010BD0000004400407B
:100D9000360000200801002010B540F225511D4802
:100DA00000F04AF810B31B4800F002F9C4B21A4828
:100DB000008800F40040C8B91748008800F480405B
:100DC00060B10A2C03D000201349088020E01248AB
:100DD000008840F400401049088019E00D2C06D12D
:100DE0000D48008840F480400B49088010E00A4814
:100DF0000088C0F30D0009490C5407480088401CC6
:100E00000549088008460088C72801DD00200880C1
:100E100010BD0000004400403000002040000020D1
:100E200021B1828942F40052828104E082894DF628
:100E3000FF731A408281704770B502460024002378
:100E40000025002040F66A16B14200D100BFC1F370
:100E5000421501F01F03012606FA03F3012D02D10A
:100E60009689334006E0022D02D1168A334001E014
:100E7000968A33400C12012606FA04F41688344090
:100E800013B10CB1012000E0002070BDF0B50346A5
:100E9000002400260025002040F66A17B94200D140
:100EA00000BF1846C1F3421401F01F06012707FADC
:100EB00006F5012C01D10C3004E0022C01D11030D8
:100EC00000E014301AB107682F43076002E007689A
:100ED000AF430760F0BD00002DE9F04786B005463E
:100EE0000E460024A24600BFA1460027B08900B1EB
:100EF00000BF2F462C8A4CF6FF700440F088044354
:100F00002C82AC894EF6F3100440B0883189084336
:100F1000718908430443AC81AC8A4FF6FF4004401A
:100F2000B0890443AC8201A8FFF7DAFB1F4887426F
:100F300002D1DDF810A001E0DDF80CA0A88900F4D2
:100F4000004040B10AEBCA0000EB0A1031684900CA
:100F5000B0FBF1F807E00AEBCA0000EB0A103168B9
:100F60008900B0FBF1F86420B8FBF0F0040120091F
:100F7000642101FB1089A88900F4004040B13220AF
:100F800000EBC900B0FBF1F000F00700044308E0FB
:100F9000322000EB09106421B0FBF1F000F00F00EB
:100FA00004432C8106B0BDE8F08700000038014002
:100FB00001468888C0F30800704700BF70470000F2
:100FC00010B56FF00400FFF7AAFC0A4800680A4950
:100FD000B0FBF1F0094908700846007800EB4001C9
:100FE000C1EBC0104FF6FF7101EAC0000449088050
:100FF00010BD00001400002000127A00280000201C
:101000002A0000200146114A12884A434FF0E0238B
:101010005A6100229A611A46126942F001021A616D
:1010200000BF4FF0E022106900F001021AB100F495
:101030008032002AF5D04FF0E022126922F001023E
:101040004FF0E0231A6100229A6170472A000020C5
:101050000A25FFF7B5FF4FF4FA70FFF7D3FFE80159
:10106000FFF714FBFFF72EF94FF4165000F0D2F8FB
:10107000FFF7DEF8FFF78AFA00BF60480068002833
:10108000FBD04FF4FA70FFF7BDFF40215C48FFF73B
:1010900064FA40F60F62002141F61F40FFF7A0FC02
:1010A00046F26560FFF7FAFB01215648FFF747FD5E
:1010B00001218807FFF743FD9EE00A20FFF7A2FF0A
:1010C0005148008800F400400028F5D04F480078CF
:1010D00001286ED12C4667E000204D490860402170
:1010E0004748FFF73AFA40F60F62002141F61F40E9
:1010F000FFF776FC41F27940FFF7D0FB0121414830
:10110000FFF71DFD01218807FFF719FD00BF4048CB
:1011100000680128FBD100203D4908604021384883
:10112000FFF71DFA40F68700FFF7B8FB01213548AD
:10113000FFF705FD01218807FFF701FD00BF3448D7
:1011400000680128FBD100203149086040212C486B
:10115000FFF703FA40F21130FFF7A0FB0121294805
:10116000FFF7EDFC01218807FFF7E9FC00BF2848E5
:1011700000680128FBD10020254908604021204853
:10118000FFF7EDF940F60370FFF788FB01211D48DA
:10119000FFF7D5FC01218807FFF7D1FC00BF1C48F1
:1011A00000680128FBD1641E002C95DC0020164944
:1011B000088016480078022811D140211048FFF716
:1011C000CCF940F2C112002140F28330FFF708FC55
:1011D00001210C48FFF7B3FC00200B4908800B48A5
:1011E0000078032808D100210648FFF7A8FC00205A
:1011F00007490860044908805FE700003C000020C0
:1012000000080140000400403000002040000020A1
:101210003800002010B586B0044601214804FFF7CD
:101220003FFA01210420FFF74BFA0420ADF8140027
:1012300003208DF8160018208DF8170005A91C480A
:10124000FFF700F90820ADF8140004208DF817000E
:1012500005A91748FFF7F6F826208DF800000120B1
:101260008DF8010003208DF8020001208DF80300A5
:101270006846FFF7D3F901940020ADF80800ADF8F7
:101280000A00ADF80C00ADF810000C20ADF80E000F
:1012900001A90848FFF720FE012240F22551054828
:1012A000FFF7F4FD01210348FFF7BAFD06B010BDBA
:1012B0000008014000440040D8120008000000204F
:1012C000400000002801000818130008400000201A
:1012D0006807000044010008000000000102030448
:1012E00001020304060708090204060800A24A04D2
:1012F00000000000000000000102030406070809C6
:1013000000000000000000000000000000000000DD
:081310000000000000000000D5
:04000005080000ED02
:00000001FF
